:1000000029EF00F00000000000EF00F00000000009
:0A0010000000000000000000F3D71C
:10001C00086A096A100E0C6E013408360936045051
:10002C00085E0550D8A0053C095ED8B007D0045036
:10003C0008260550D8B0053C0926D8900036013664
:06004C000C2EEAD71200A1
:100052003F0E1B6E060E1C6E5B0E1D6E4F0E1E6E4D
:10006200660E1F6E6D0E206E7D0E216E070E226EC5
:100072007F0E236E6F0E246E0F0EC16E93809382DD
:10008200929492969298929A956A156A166A176A4B
:10009200186A81B00FD01550000A0CE1010E156EDE
:1000A200174A182A1850270802E117500F0802E2CF
:1000B200176A186A81A004D01550010AD8B4156ACB
:1000C20081B213D01650000A10E1010E166E010E15
:1000D200175E000E185A1850270802E117500F0831
:1000E20004E20F0E176E270E186E81A204D016506E
:1000F200010AD8B4166A17C019F018C01AF00A0E0D
:10010200046E000E056E17C000F018C001F085DF06
:1001120008C000F009C001F01B0E0024E96E000EB9
:100122000120EA6EEECF83FF808A060E0C6E300E3F
:100132000D6E0D2EFED70C2EFCD70000809A0A0EF3
:10014200046E000E056E19C000F01AC001F065DFE2
:1001520000C019F001C01AF00A0E046E000E056EFE
:100162005CDF08C000F009C001F01B0E0024E96E3C
:10017200000E0120EA6EEECF83FF8088060E0C6E21
:10018200300E0D6E0D2EFED70C2EFCD7000080987F
:100192000A0E046E000E056E19C000F01AC001F0BE
:1001A2003CDF00C019F001C01AF00A0E046E000E06
:1001B200056E33DF08C000F009C001F01B0E0024F9
:1001C200E96E000E0120EA6EEECF83FF8086060EF6
:1001D2000C6E300E0D6E0D2EFED70C2EFCD70000CD
:1001E20080960A0E046E000E056E19C000F01AC049
:1001F20001F013DF00C019F001C01AF00A0E046EFC
:10020200000E056E0ADF08C000F009C001F01B0EE7
:100212000024E96E000E0120EA6EEECF83FF808497
:10022200060E0C6E300E0D6E0D2EFED70C2EFCD768
:08023200000080942ED7FFD7D5
:020000040030CA
:0D000100021F1EFF8381FF0FC00FE00F40A4
:00000001FF
