:1000000032EF04F00000000000EF00F000000000FC
:0A0010000000000000000000F3D71C
:10001C00F250026EF29E0500FF6A0150FE6E005017
:08002C00FD6E02BEF28E12000F
:1000340073C0ABF074C0ACF075C0ADF076C0AEF078
:100044009E96C5869EB61FD0735074107510761098
:1000540019E00001AB51AC11AD11AE110CE193C02C
:10006400E1FF94C0E2FF030EE66E91C000F092C07F
:1000740001F0D2DF08D0010E0001AB5F000EAC5BD3
:10008400AD5BAE5BDFD70001C9CFAAF0A951000A6E
:1000940002E1C58A01D0C59A9E96C58873C0ABF0AB
:1000A40074C0ACF075C0ADF076C0AEF09EB61FD093
:1000B400735074107510761019E00001AB51AC1137
:1000C400AD11AE110CE193C0E1FF94C0E2FF030E49
:1000D400E66E91C000F092C001F09EDF08D0010EE0
:1000E4000001AB5F000EAC5BAD5BAE5BDFD7AAC0BB
:0400F40000F0120006
:0600F800000000001200F0
:0A00FE00210E0D6E0D2EFED712002C
:100108000F0E0C6E470E0D6E0D2EFED70C2EFCD763
:06011800000000001200CF
:10011E000B840BAE9AEF00F0010E036E026A016AB9
:0A012E00006A0A360232FF0E1200CA
:080138000AAE029E000E120047
:08014000A8C0A9F077DF12004E
:0E014800026A016A006A086A036A000E120069
:100156000001A8BF02D0839E01D0838EA8BD02D025
:10016600839C01D0838CA8BB02D0839A01D0838A5A
:10017600A8B902D0839801D083887FB002D0848446
:1001860001D084948482B5DF8492A8B702D0839E7E
:1001960001D0838EA8B502D0839C01D0838CA8B3EE
:1001A60002D0839A01D0838AA8B102D0839801D065
:1001B60083887FB002D0848401D08494848299DFBE
:0E01C60084927FA002D09DDF01D096DF120050
:0C01D4007F90A0C0A8F0BDDF7F8012006B
:1001E0000B6A0A6A096A00500402F4CF09F0F3CFDF
:1001F00008F001500502F4CF0BF0F3CF0AF00050E5
:100200000502F3500926F4500A22E86A0B22015035
:100210000402F3500926F4500A22E86A0B2208C0AF
:1002200000F009C001F00AC002F00BC003F0120098
:100230000C6A0E6A0250D8A431EF01F001C002F03E
:1002400000C001F0006A0E860250D8A431EF01F020
:1002500001C002F0016A0E960E880250D8B443EF36
:1002600001F00E50035ED8A4D8A048EF01F0D8905A
:1002700002BE4DEF01F0003601360236032E38EF94
:1002800001F048EF01F0010E0C6E5EDF50EF01F05F
:10029000020E0C6E44DF50EF01F0040E0C6E4CDFCA
:0202A00012004A
:1002A2000B820BAE5BEF01F0036802680168006825
:0802B2000A360232FF0E1200B1
:1002BA000001A46BA56B800EA519006E800E005C70
:1002CA0002E1040EA45D13E2A00EA425A66F000E9F
:1002DA00A521A76F010EA86F2EDFA6C0E1FFA7C058
:1002EA00E2FF00C0E6FF0001A44BA52BE4D7A0C0A3
:1002FA0000F0A1C001F0A2C002F0A3C003F01200F6
:10030A000B800BAE91EF01F0026A0AAEFF0E026E8D
:0C031A00016E006E0A360232FF0E120067
:0C0326000E0E0D6E0D2EFED70000120012
:100332000001A26BA36B800EA319006E800E005CFD
:1003420002E1020EA25D13E2A00EA225A46F000E2E
:10035200A321A56F010EA86FF2DEA4C0E1FFA5C024
:10036200E2FF00C0E6FF0001A24BA32BE4D7A0C02E
:0803720000F0A1C001F012002F
:10037A000900F5CFE6FF0006FBE10106F9E11200EC
:0A038A009494CA840C0EBD121200F8
:08039400BE6ABD98BD9A12007B
:10039C00969296949598959A959C959E8492849411
:1003AC00839E839C839A8398A9DEA8DEA7DE838A2A
:1003BC00838884829BDE8492A1DE848297DE849281
:1003CC009DDE848293DE849299DE839884828EDE15
:1003DC00849294DE84828ADE8492839A838E8482D1
:1003EC0085DE84928BDE839E838884827FDE84927A
:1003FC00839884827BDE849281DE848277DE849291
:10040C008388848273DE849279DE839884826EDEA4
:10041C008492838E838C838A8388848267DE849221
:06042C006DDE7F8012006E
:10043200C7B409D01F0EC514016E0150000A03E1B2
:0A044200010E006E01D0006A1200E6
:10044C00320E00018D6F040E8E6F000E8F6F000E3A
:10045C00906FFF0E896FFF0E8A6F000E8B6F000E70
:10046C008C6FFF0E7B6EFF0E7C6E000E7D6E000E91
:10047C007E6E340E776E000E786EA90E796E000EBD
:10048C007A6EFF0E816FFF0E826FFF0E836FFF0E71
:10049C00846FFF0E856FFF0E866F000E876F000E48
:1004AC00886F949894968B988B9694889486C79E14
:0804BC00C79C380EC66E120049
:1004C400010E0001A86F3ADE00C058F0000E596E0C
:1004D400F2DE00C054F001C055F002C056F003C073
:1004E40057F0E9DE00C05AF001C05BF002C05CF0D6
:1004F40003C05DF0E0DE00C060F001C061F002C046
:1005040062F003C063F013DF00C05EF001C05FF06F
:06051400A86B14DE1200CA
:10051A000B6A0C6A0A6A0350D8B4D7EF02F0028E4B
:10052A008E0E035E03BE9FEF02F0D8B49FEF02F077
:10053A00DBEF02F0036C080E035CD8A0B6EF02F002
:10054A00036E013602C001F0026A080E035CD8A0ED
:10055A00B6EF02F00136016A0350D8A4D890C0EF72
:10056A0002F00350D8B4C0EF02F0D8900232013240
:10057A00032EBAEF02F00BBC01A0CDEF02F0D8A017
:10058A00CDEF02F0012AD8B4022A02BEEAEF02F045
:10059A000AAEEFEF02F0021E011E012AD8B4022AA7
:1005AA00EFEF02F0026A016AEFEF02F00B800BAE86
:1005BA00F3EF02F0026A0AAEF3EF02F0FF0E026EE8
:1005CA00016E0A360232F3EF02F0010E0C6E98DE6B
:1005DA00F5EF02F0000E0C6EF5EF02F0FF0E0C6E56
:0A05EA000150006E0250016E120075
:1005F400CB50010F006E016A000E01229BC004F073
:10060400000E056EEBDD060E026E00C004F001C0A4
:1006140005F0025005E005320432059EFF0FFAD7BB
:10062400040E016E04C000F0015004E00036009096
:10063400FF0FFBD7300E0014036E04C000F005C09A
:1006440001F001320032019E01320032019E00C0ED
:0C065400BEFF0F0EBD160350BD121200B9
:1006600010D0800E00019B6F1AD0C00E9B6F17D068
:10067000940E9B6F14D0D40E9B6F11D0800E9B6F85
:100680000ED000019B51010AECE09B51020AEDE003
:100690009B51030AEDE09B51040AEDE0EFD79C0566
:1006A000006E9B51002600C09BF000C0A8F053DDF7
:1006B0007F909F6B9F519D25E96E000E9E21EA6EF3
:1006C000EE520BE09F519D25E96E000E9E21EA6ED1
:0E06D000EECFA0F07FDD9F2BEDD77F801200D4
:1006DE00C26A6D1C006E0050C116070EC012C08E8D
:1006EE009BC000F000360090003600900050C21201
:1006FE00C28012DEC282C2A201D0FDD7C4CF01F0E9
:0E070E00006AC3500012000E0112C2901200C9
:10071C000050086E0150006E016A026A036A0B6A8F
:10072C000C6A960E036E0A6A00C001F008C000F055
:08073C00086A026A77DD120071
:10074400086A096A000E0762036427EF04F0025086
:1007540006180A6E075003267E0ED8A0B8EF03F0E1
:10076400035ED8B02BEF04F0BCEF03F0035ED8A017
:100774002FEF04F0028E068E02C00EF001C00BF0C3
:1007840000C00DF000500402F4CF0CF0015005023B
:10079400F4CF00F0F3CF08F00402F3500C26F45029
:1007A4000822000E00220D500502F3500C26F450CE
:1007B4000822000E002202500402F3500826F450CE
:1007C400002202500502016A000E0122F3500026A5
:1007D400F45001220D500602F3500826F450002272
:1007E400026A000E012202220B500602F350002678
:1007F400F4500122000E02220E500602F35001268C
:10080400F450022202BE0FEF04F00836003601361F
:1008140002360306D8B42FEF04F022EF04F0D88098
:10082400800E08640030000E002201220222D8A0AB
:1008340022EF04F0023201320032034A2BEF04F0BB
:100844000AAE029E000E31EF04F0010E7BDC31EFA4
:1008540004F0020E24DD31EF04F0040E5EDC12001D
:1008640029EC05F00001976B986B996B9A6B806B80
:10087400010E806E010E926E9380010EC26ECE0E3A
:10088400C16EBE0EC06E88DD0C0EA86F62DC010E58
:10089400A86F5FDCCA80CA92630ECB6E79DD73DD0C
:1008A400140EC86ED1DDC3DD005201E009DE000183
:1008B4009B6B13DF00C095F001C096F02DDFDB0EBB
:1008C400046EF90E056E7E0E066E7C0E076E38DF22
:1008D40022DE00C095F001C096F05850591004E093
:1008E40095C09BF085DE03D000019B6B81DE81B057
:1008F4000BD000018051000A07E1974B982B010EA1
:10090400806F010EA86F25DC81A005D00001805105
:10091400010AD8B4806B0001030E9715016E98C0CC
:1009240002F0000E021601C099F002C09AF0000E07
:10093400021802E1000E011813E1010E9B6F030E71
:100944009C6F480E9D6F000E9E6F88DE020E9B6F9B
:10095400050E9C6F240E9D6F000E9E6F7FDE44D0AB
:10096400000E9A1902E1010E991913E1010E9B6F11
:10097400020E9C6F150E9D6F000E9E6F6FDE020EB1
:100984009B6F050E9C6F2C0E9D6F000E9E6F66DE96
:100994002BD0000E9A1902E1020E991913E1010EEF
:1009A4009B6F010E9C6F380E9D6F000E9E6F56DE7E
:1009B400020E9B6F070E9C6F340E9D6F000E9E6F90
:1009C4004DDE12D0010E9B6F050E9C6F640E9D6F61
:1009D400000E9E6F43DE020E9B6F070E9C6F6E0E21
:0C09E4009D6F000E9E6F3ADE5ED7FFD7BD
:100A520010EE15F0620E006E010E016EF00EF66ED3
:0E0A6200090EF76E000EF86EBDEC01F01200EA
:0F09F0005072657373616F2041746D6F73660091
:0809FF0033302C343520430095
:080A0700302C392061746D00F0
:040A0F003432250058
:100A1300556D696461646520646F20536F6C6F006A
:0C0A230054656D7065726174757261003D
:040A2F0000000000C3
:020A33000100C0
:040A350000000000BD
:020A39000000BB
:040A3B0000000000B7
:090A3F00416C7469747564650072
:010A4800307D
:050A49003834336D009C
:040A4E0000000000A4
:020000040030CA
:0D000100021F1EFF8381FF0FC00FE00F40A4
:00000001FF
