:1000000031EF03F00000000000EF00F000000000FE
:0A0010000000000000000000F3D71C
:06001C00000000001200CC
:100022000F0E0C6E470E0D6E0D2EFED70C2EFCD74A
:06003200000000001200B6
:0A003800210E0D6E0D2EFED71200F2
:080042000AAE029E000E12003E
:10004A000B840BAE30EF00F0010E036E026A016AF8
:0A005A00006A0A360232FF0E12009F
:0E006400026A016A006A086A036A000E12004E
:100072006ABE02D0839E01D0838E6ABC02D0839C6A
:1000820001D0838C6ABA02D0839A01D0838A6AB87B
:1000920002D0839801D083885CB002D0848401D0DE
:1000A20084948482BADF84926AB602D0839E01D09D
:1000B200838E6AB402D0839C01D0838C6AB202D050
:1000C200839A01D0838A6AB002D0839801D0838850
:1000D2005CB002D0848401D0849484829EDF8492B6
:0C00E2005CA002D09DDF01D0A6DF120060
:1000EE000B820BAE81EF00F00368026801680068B6
:0800FE000A360232FF0E120067
:100106000C6A0E6A0250D8A49CEF00F001C002F0FF
:1001160000C001F0006A0E860250D8A49CEF00F0E1
:1001260001C002F0016A0E960E880250D8B4AEEFF6
:1001360000F00E50035ED8A4D8A0B3EF00F0D8901C
:1001460002BEB8EF00F0003601360236032EA3EFEA
:1001560000F0B3EF00F0010E0C6E81DFBBEF00F094
:10016600020E0C6E6FDFBBEF00F0040E0C6E66DF46
:02017600120075
:0C0178005C9069C06AF079DF5C801200C6
:100184000B800BAECEEF00F0026A0AAEFF0E026ED9
:0C019400016E006E0A360232FF0E1200EF
:1001A0000B6A0A6A096A00500402F4CF09F0F3CF1F
:1001B00008F001500502F4CF0BF0F3CF0AF0005025
:1001C0000502F3500926F4500A22E86A0B22015076
:1001D0000402F3500926F4500A22E86A0B2208C0F0
:1001E00000F009C001F00AC002F00BC003F01200D9
:0C01F0000E0E0D6E0D2EFED7000012004A
:1001FC00AECF01F0ABA202D0AB98AB8801C000F03F
:02020C001200DE
:10020E00FF0E506EFF0E516EFF0E526EFF0E536EAE
:10021E00FC0E586E010E596E000E5A6E000E5B6E7D
:10022E00FF0E546EFF0E556E000E566E000E576E7C
:10023E00FF0E4C6EFF0E4D6E000E4E6E000E4F6E8C
:10024E00AC8A900EAB6E948E949C9EAA03D0AECFC9
:06025E0000F0FBD71200C6
:10026400969296949598959A959C959E849284944A
:10027400839E839C839A8398D2DED1DED0DE838AE8
:1002840083888482C9DE8492CADE8482C5DE849235
:10029400C6DE8482C1DE8492C2DE83988482BCDEA0
:1002A4008492BDDE8482B8DE8492839A838E8482B3
:1002B400B3DE8492B4DE839E83888482ADDE84922E
:1002C40083988482A9DE8492AADE8482A5DE849245
:1002D40083888482A1DE8492A2DE839884829CDE59
:1002E4008492838E838C838A8388848295DE84922D
:0602F40096DE5C801200A2
:1002FA000900F5CFE6FF0006FBE10106F9E112006D
:0A030A009494CA840C0EBD12120078
:08031400BE6ABD98BD9A1200FB
:10031C00086A096A000E0762036413EF02F00250C8
:10032C0006180A6E075003267E0ED8A0A4EF01F023
:10033C00035ED8B017EF02F0A8EF01F0035ED8A06F
:10034C001BEF02F0028E068E02C00EF001C00BF005
:10035C0000C00DF000500402F4CF0CF00150050267
:10036C00F4CF00F0F3CF08F00402F3500C26F45055
:10037C000822000E00220D500502F3500C26F450FA
:10038C000822000E002202500402F3500826F450FA
:10039C00002202500502016A000E0122F3500026D1
:1003AC00F45001220D500602F3500826F45000229E
:1003BC00026A000E012202220B500602F3500026A4
:1003CC00F4500122000E02220E500602F3500126B8
:1003DC00F450022202BEFBEF01F008360036013663
:1003EC0002360306D8B41BEF02F00EEF02F0D880F1
:1003FC00800E08640030000E002201220222D8A0D8
:10040C000EEF02F0023201320032034A17EF02F013
:10041C000AAE029E000E1DEF02F0010E1DDE1DEF56
:10042C0002F0020E5EDE1DEF02F0040E08DE12007A
:10043C000B6A0C6A0A6A0350D8B468EF02F0028E99
:10044C008E0E035E03BE30EF02F0D8B430EF02F034
:10045C006CEF02F0036C080E035CD8A047EF02F0BF
:10046C00036E013602C001F0026A080E035CD8A0CC
:10047C0047EF02F00136016A0350D8A4D89051EF2F
:10048C0002F00350D8B451EF02F0D890023201328E
:10049C00032E4BEF02F00BBC01A05EEF02F0D8A0D4
:1004AC005EEF02F0012AD8B4022A02BE7BEF02F002
:1004BC000AAE80EF02F0021E011E012AD8B4022AF5
:1004CC0080EF02F0026A016A80EF02F00B800BAE43
:1004DC0084EF02F0026A0AAE84EF02F0FF0E026EA5
:1004EC00016E0A36023284EF02F0010E0C6E44DE0D
:1004FC0086EF02F0000E0C6E86EF02F0FF0E0C6E13
:0A050C000150006E0250016E120053
:10051600CB50010F006E016A000E012264C004F088
:10052600000E056E3ADE060E026E00C004F001C033
:1005360005F0025005E005320432059EFF0FFAD79A
:10054600040E016E04C000F0015004E00036009075
:10055600FF0FFBD7300E0014036E04C000F005C079
:1005660001F001320032019E01320032019E00C0CC
:0C057600BEFF0F0EBD160350BD12120098
:10058200C26A231C006E0050C116070EC012C08E34
:1005920064C000F000360090003600900050C21295
:1005A200C28025DEC282C2A201D0FDD7C4CF01F033
:0E05B200006AC3500012000E0112C290120027
:1005C0000050086E0150006E016A026A036A0B6AED
:1005D0000C6A960E036E0A6A00C001F008C000F0B3
:0805E000086A026A90DD1200B6
:1005E8000FD0800E646E19D0C00E646E16D0940EB3
:1005F800646E13D0D40E646E10D0800E646E0DD06D
:100608006450010AEEE06450020AEEE06450030A06
:10061800EEE06450040AEEE0F0D76504006E645022
:10062800002600C064F000C06AF01FDD5C90686AB4
:1006380068506624E96E000E6720EA6EEE520BE001
:1006480068506624E96E000E6720EA6EEECF69F006
:0A0658008FDD682AEDD75C801200E8
:100662000CEC04F05F6A606A616A626A636A010E96
:10067200806E010E926E9380949C948E010EC26ED7
:10068200CE0EC16EBE0EC06EECDD0C0E6A6EF0DCDC
:10069200010E6A6EEDDCCA80CA92630ECB6E39DE41
:1006A20033DEB886B06ACF0EAF6EAC84AFDD020E19
:1006B2000B6E040E0C6EBA0E0D6E0D2EFED70C2EA6
:1006C200FCD70B2EFAD7000098DD00C015F0000E03
:1006D200166E646A55DF00C05DF001C05EF06FDF28
:1006E200DB0E046EF90E056E7E0E066E7C0E076E34
:1006F20014DEA3DE00C05DF001C05EF0000E16182D
:1007020002E1010E151804E15DC064F003DF02D0BE
:10071200646A00DF81B00AD06350000A07E15F4AD1
:10072200602A010E636E010E6A6EA2DC81A004D003
:100732006350010AD8B4636A020E0B6E040E0C6E8B
:10074200BA0E0D6E0D2EFED70C2EFCD70B2EFAD73D
:100752000000030E5F14016E60C002F0000E02166C
:1007620001C061F002C062F0000E021802E1000E48
:1007720001180AE1010E646E010E656E170E666EB7
:10078200000E676E30DF29D0000E621802E1010E02
:1007920061180AE1010E646E010E656E2D0E666E21
:1007A200000E676E20DF19D0000E621802E1020E01
:1007B20061180AE1010E646E010E656E3C0E666EF2
:1007C200000E676E10DF09D0010E646E010E656EB9
:0E07D200240E666E000E676E06DF76D7FFD728
:1008180010EE15F0370E006E010E016EE00EF66E4A
:0E082800070EF76E000EF86E7DEC01F0120068
:0207E000000017
:0C07E20054656D70657261747572610081
:0107EE0030DA
:0907EF00416C74697475646500C5
:0F07F8005072657373616F2041746D6F7366008B
:10080700556D696461646520646F20536F6C6F0078
:020000040030CA
:0D000100021F1EFF8381FF0FC00FE00F40A4
:00000001FF
