:100000003FEF02F00000000000EF00F000000000F1
:0A0010000000000000000000F3D71C
:10001C000F0E0C6E470E0D6E0D2EFED70C2EFCD750
:06002C00000000001200BC
:06003200000000001200B6
:0A003800210E0D6E0D2EFED71200F2
:10004200086A096A100E0C6E01340836093604502B
:10005200085E0550D8A0053C095ED8B007D0045010
:1000620008260550D8B0053C0926D890003601363E
:060072000C2EEAD712007B
:1000780048BE02D0839E01D0838E48BC02D0839CA8
:1000880001D0838C48BA02D0839A01D0838A48B8B9
:1000980002D0839801D0838822B002D0848401D012
:1000A80084948482C2DF849248B602D0839E01D0B1
:1000B800838E48B402D0839C01D0838C48B202D08E
:1000C800839A01D0838A48B002D0839801D083886C
:1000D80022B002D0848401D084948482A6DF8492E2
:0C00E80022A002D097DF01D0A3DF12009D
:1000F400456A050E455C0AE245504324E16E000E54
:100104004420E26E200EE66E452AF3D74550432480
:10011400E16E000E4420E26EE66A45064550432433
:10012400466E000E4420476E0A0E046E000E056EE5
:1001340041C000F042C001F082DF08C000F009C0F5
:1001440001F0300E002646C0E1FF47C0E2FF00C0C8
:10015400E6FF0A0E046E000E056E41C000F042C0B8
:1001640001F06DDF00C041F001C042F0000E011843
:1001740002E1000E001801E102D04506CFD71200BB
:0C0184000E0E0D6E0D2EFED700001200B6
:0C019000229041C048F070DF2280120075
:10019C00396A3A6A37C003F038C004F037C005F04A
:1001AC0038C006F003C0E9FF04C0EAFFEE50200A95
:1001BC0004E139503A1001E110D0010E396E000EF5
:1001CC003A6E03C0E9FF04C0EAFF05C0E1FF06C0B8
:1001DC00E2FFEECFE6FF054A062A03C001F004C099
:1001EC0002F0034A042A01C0E9FF02C0EAFFEE5004
:0E01FC00000AD8E137C000F038C001F0120050
:10020A00830EC21637C000F0003600900036009008
:10021A000050C212B2DFC282C2A201D0FDD7C4CF3F
:0E022A0001F0006AC3500012000E0112120013
:100238000A0E236E020E246E370E256E000E266EF1
:10024800C26A191C006E0050C116070EC012C08E7B
:04025800C28012004E
:10025C000900F5CFE6FF0006FBE10106F9E112000B
:10026C00969296949598959A959C959E8492849442
:10027C00839E839C839A8398CBDECADEC9DE838AF5
:10028C0083888482D0DE8492C3DE8482CCDE849226
:10029C00BFDE8482C8DE8492BBDE83988482C3DE98
:1002AC008492B6DE8482BFDE8492839A838E8482AB
:1002BC00BADE8492ADDE839E83888482B4DE84921F
:1002CC0083988482B0DE8492A3DE8482ACDE849236
:1002DC0083888482A8DE84929BDE83988482A3DE4A
:1002EC008492838E838C838A838884829CDE84921E
:0602FC008FDE22801200DB
:10030200396A39503724E96E000E3820EA6EEE520F
:100312000BE039503724E96E000E3820EA6EEECF3A
:0A03220041F035DF392AEDD7120053
:10032C000FD0800E376E19D0C00E376E16D0940ECB
:10033C00376E13D0D40E376E10D0800E376E0DD0B2
:10034C003750010AEEE03750020AEEE03750030A4C
:10035C00EEE03750040AEEE0F0D73804006E375068
:10036C00002600C037F000C048F080DE22903B6AC7
:10037C003B503924E96E000E3A20EA6EEE520BE047
:10038C003B503924E96E000E3A20EA6EEECF41F074
:0A039C00F9DE3B2AEDD722801200A3
:1003A6003D6A3E6A37C03FF038C040F0800E3818CC
:1003B600006E800E005C02E1000E375C0BE2010E5F
:1003C6003D6E000E3E6E375000083F6E38C040F05E
:1003D600000E40563FC041F040C042F039C043F0E5
:1003E6003AC044F084DE060E3B6E000E3C6E000EF4
:1003F600006E3C50005C02E13B50000819E23B50A5
:100406003924E16E3C503A20E26E010E3B5C006EF0
:10041600000E3C58016E00503924E96E01503A2016
:10042600EA6EEECFE6FF010E3B5E000E3C5ADFD7CA
:1004360039C0E1FF3AC0E2FF200EE66E3D503E10A5
:100446001AE03B6A3C6A3B503924E96E3C503A203C
:10045600EA6EEE50200A03E13B4A3C2AF4D7010E2D
:100466003B5E000E3C5A3B503924E16E3C503A202C
:08047600E26E2D0EE66E12008D
:10047E00AAEC02F0928092820E0EC16ED6DE070EAC
:10048E00B46EEDDE010E486EF0DD0C0E486EEDDD45
:10049E00376AB4DE00C020F001C021F0010E376EC5
:1004AE00ADDE00C01EF001C01FF020C037F021C02D
:1004BE0038F02F0E396E000E3A6E6EDF1EC037F01A
:1004CE001FC038F0270E396E000E3A6E65DF2F0E04
:1004DE00376E000E386E5BDE270E376E000E386EEE
:1004EE0056DE010E376E010E386E1A0E396E000E84
:1004FE003A6E15DF2F0E376E000E386EFBDE010ED4
:10050E00376E090E386E150E396E000E3A6E07DF15
:10051E00270E376E000E386EEDDE020E0B6E040ED9
:10052E000C6EBA0E0D6E0D2EFED70C2EFCD70B2EAA
:08053E00FAD70000ADD7FFD78A
:1005540010EE15F00D0E006E010E016E460EF66ED5
:0E056400050EF76E000EF86E2EEC01F0120080
:0405460053323A00F2
:01054A003080
:04054B0053313A00EE
:02054F000000AA
:020551000000A8
:020000040030CA
:0D000100021F1EFF8381FF0FC00FE00F40A4
:00000001FF
