:10000000F5EF00F00000000000EF00F0000000003D
:0A0010000000000000000000F3D71C
:06001C00000000001200CC
:100022000F0E0C6E470E0D6E0D2EFED70C2EFCD74A
:06003200000000001200B6
:0A003800210E0D6E0D2EFED71200F2
:1000420069BE02D0839E01D0838E69BC02D0839C9C
:1000520001D0838C69BA02D0839A01D0838A69B8AD
:1000620002D0839801D0838862B002D0848401D008
:1000720084948482D2DF849269B602D0839E01D0B6
:10008200838E69B402D0839C01D0838C69B202D082
:10009200839A01D0838A69B002D0839801D0838881
:1000A20062B002D0848401D084948482B6DF8492C8
:0C00B20062A002D0B5DF01D0BEDF12005A
:0C00BE00629068C069F0BEDF6280120032
:1000CA000900F5CFE6FF0006FBE10106F9E112009F
:1000DA00969296949598959A959C959E84928494D6
:1000EA00839E839C839A839897DF96DF95DF838A22
:1000FA00838884828EDF84928FDF84828ADF84926F
:10010A008BDF848286DF849287DF8398848281DF13
:10011A00849282DF84827DDF8492839A838E8482B2
:10012A0078DF849279DF839E8388848272DF849267
:10013A00839884826EDF84926FDF84826ADF84927E
:10014A008388848266DF849267DF8398848261DF92
:10015A008492838E838C838A838884825ADF8492F2
:06016A005BDF6280120061
:100170000FD0800E636E19D0C00E636E16D0940E31
:10018000636E13D0D40E636E10D0800E636E0DD0EC
:100190006350010AEEE06350020AEEE06350030A86
:1001A000EEE06350040AEEE0F0D76404006E6350A2
:1001B000002600C063F000C069F043DF6290676A08
:1001C00067506524E96E000E6620EA6EEE520BE081
:1001D00067506524E96E000E6620EA6EEECF68F087
:0A01E0006EDF672AEDD7628012007F
:1001EA00B1EC01F00F0EC16E73DF0C0E696E24DFE5
:1001FA00010E696E21DF010E636E030E646E480EF6
:10020A00656E000E666EAFDF020E636E050E646EDB
:10021A00400E656E000E666EA6DF150E0B6E4B0E57
:10022A000C6EBE0E0D6E0D2EFED70C2EFCD70B2EAD
:10023A00FAD70000010E696EFFDE010E636E050E2D
:10024A00646E590E656E000E666E8DDF020E636E69
:10025A00070E646E540E656E000E666E84DF150E10
:10026A000B6E4B0E0C6EBE0E0D6E0D2EFED70C2EA7
:10027A00FCD70B2EFAD70000010E696EDDDE010EE7
:10028A00636E010E646E190E656E000E666E6BDF8C
:10029A00020E636E070E646E150E656E000E666EB4
:1002AA0062DF150E0B6E4B0E0C6EBE0E0D6E0D2E12
:1002BA00FED70C2EFCD70B2EFAD70000010E696E62
:1002CA00BBDE010E636E020E646E310E656E000EA9
:1002DA00666E49DF020E636E050E646E290E656E48
:1002EA00000E666E40DF150E0B6E4B0E0C6EBE0EC8
:1002FA000D6E0D2EFED70C2EFCD70B2EFAD7000052
:0A030A00010E696E99DE77D7FFD768
:1003620010EE15F04D0E006E010E016E140EF66EBB
:0E037200030EF76E000EF86E65EC00F0120040
:04031400343225005A
:10031800556D696461646520646F20536F6C6F006C
:08032800302C392061746D00D6
:0F0330005072657373616F2041746D6F73660057
:08033F0033302C34352043005B
:0C03470054656D70657261747572610020
:050353003834336D0099
:09035800416C7469747564650060
:020000040030CA
:0D000100021F1EFF8381FF0FC00FE00F40A4
:00000001FF
