:100000001EEF02F00000000000EF00F00000000012
:0A0010000000000000000000F3D71C
:08001C000AAE029E000E120064
:100024000B840BAE1DEF00F0010E036E026A016A31
:0A003400006A0A360232FF0E1200C5
:0E003E00026A016A006A086A036A000E120074
:10004C000B6A0A6A096A00500402F4CF09F0F3CF74
:10005C0008F001500502F4CF0BF0F3CF0AF000507A
:10006C000502F3500926F4500A22E86A0B220150CB
:10007C000402F3500926F4500A22E86A0B2208C045
:10008C0000F009C001F00AC002F00BC003F012002E
:10009C000C6A0E6A0250D8A467EF00F001C002F09F
:1000AC0000C001F0006A0E860250D8A467EF00F081
:1000BC0001C002F0016A0E960E880250D8B479EF96
:1000CC0000F00E50035ED8A4D8A07EEF00F0D890BC
:1000DC0002BE83EF00F0003601360236032E6EEFBF
:1000EC0000F07EEF00F0010E0C6EA3DF86EF00F047
:1000FC00020E0C6E91DF86EF00F0040E0C6E88DFA2
:02010C001200DF
:0C010E000E0E0D6E0D2EFED7000012002C
:10011A000B820BAE97EF00F0036802680168006873
:08012A000A360232FF0E12003A
:100132000B800BAEA5EF00F0026A0AAEFF0E026E54
:0C014200016E006E0A360232FF0E120041
:10014E00086A096A000E076203642CEF01F0025080
:10015E0006180A6E075003267E0ED8A0BDEF00F0DB
:10016E00035ED8B030EF01F0C1EF00F0035ED8A00F
:10017E0034EF01F0028E068E02C00EF001C00BF0BD
:10018E0000C00DF000500402F4CF0CF00150050237
:10019E00F4CF00F0F3CF08F00402F3500C26F45025
:1001AE000822000E00220D500502F3500C26F450CA
:1001BE000822000E002202500402F3500826F450CA
:1001CE00002202500502016A000E0122F3500026A1
:1001DE00F45001220D500602F3500826F45000226E
:1001EE00026A000E012202220B500602F350002674
:1001FE00F4500122000E02220E500602F350012688
:10020E00F450022202BE14EF01F008360036013619
:10021E0002360306D8B434EF01F027EF01F0D88090
:10022E00800E08640030000E002201220222D8A0A7
:10023E0027EF01F0023201320032034A30EF01F0B3
:10024E000AAE029E000E36EF01F0010EF1DE36EF21
:10025E0001F0020E5BDF36EF01F0040EDCDE120061
:08026E00BE6ABD98BD9A1200A2
:100276000050086E0150006E016A026A036A0B6A3A
:100286000C6A960E036E0A6A00C001F008C000F000
:08029600086A026A00DF120091
:0A029E009494CA840C0EBD121200E5
:1002A800C26A151C006E0050C116070EC012C08E1F
:1002B80016C000F000360090003600900050C212C0
:1002C800C28021DFC282C2A201D0FDD7C4CF01F013
:0E02D800006AC3500012000E0112C290120004
:1002E600CB50010F006E016A000E012216C004F009
:1002F600000E056EA8DE060E026E00C004F001C0F8
:1003060005F0025005E005320432059EFF0FFAD7CC
:10031600040E016E04C000F0015004E000360090A7
:10032600FF0FFBD7300E0014036E04C000F005C0AB
:1003360001F001320032019E01320032019E00C0FE
:0C034600BEFF0F0EBD160350BD121200CA
:100352000900F5CFE6FF0006FBE10106F9E1120014
:100362000B6A0C6A0A6A0350D8B4FBEF01F0028EE2
:100372008E0E035E03BEC3EF01F0D8B4C3EF01F0EB
:10038200FFEF01F0036C080E035CD8A0DAEF01F076
:10039200036E013602C001F0026A080E035CD8A0A7
:1003A200DAEF01F00136016A0350D8A4D890E4EFE5
:1003B20001F00350D8B4E4EF01F0D89002320132D8
:1003C200032EDEEF01F00BBC01A0F1EF01F0D8A08B
:1003D200F1EF01F0012AD8B4022A02BE0EEF02F0B8
:1003E2000AAE13EF02F0021E011E012AD8B4022A3D
:1003F20013EF02F0026A016A13EF02F00B800BAEF8
:1004020017EF02F0026A0AAE17EF02F0FF0E026E59
:10041200016E0A36023217EF02F0010E0C6E88DE10
:1004220019EF02F0000E0C6E19EF02F0FF0E0C6EC7
:0A0432000150006E0250016E12002E
:10043C0043EC02F0FF0E806EFF0E926E010EC26E48
:10044C00CE0EC16EBE0EC06ECA80CA92630ECB6E4B
:10045C0008DF1FDF166A22DF08DFDB0E046EF90EE1
:10046C00056E7E0E066E7C0E076E6BDE74DF00C0B2
:08047C0016F033DFEFD7FFD7C4
:1004860010EE15F0010E006E010E016E840EF66E72
:0E049600040EF76E000EF86EA9EC01F01200D5
:010484003047
:020000040030CA
:0D000100021F1EFF8381FF0FC00FE00F40A4
:00000001FF
