:100000000EEF00F00000000000EF00F00000000024
:0A0010000000000000000000F3D71C
:10001C000F0EC16E926A806A956A836A8084FD0EA7
:10002C00836E030E0C6E970E0D6E0D2EFED70C2EDE
:10003C00FCD700000000809480863F0E836E030E78
:10004C000C6E970E0D6E0D2EFED70C2EFCD70000ED
:10005C000000809680886D0E836E030E0C6E970EDA
:10006C000D6E0D2EFED70C2EFCD7000000008098D4
:10007C00808A070E836E030E0C6E970E0D6E0D2E7E
:10008C00FED70C2EFCD700000000809AC7D7FFD7F4
:020000040030CA
:0D000100021F1EFF8381FF0FC00FE00F40A4
:00000001FF
