:100000000EEF00F00000000000EF00F00000000024
:0A0010000000000000000000F3D71C
:10001C00156A166A176A0F0EC16E9380939E81B093
:10002C0007D01750000A04E1154A162A010E176E64
:10003C0081A004D01750010AD8B4176A020E0B6EB7
:10004C00040E0C6EBA0E0D6E0D2EFED70C2EFCD7B8
:10005C000B2EFAD70000010E1514016E16C002F01B
:10006C00000E0216000E021802E1000E011802E149
:0A007C00819E01D0818ED3D7FFD7FB
:020000040030CA
:0D000100021F1EFF8381FF0FC00FE00F40A4
:00000001FF
